S018000050726F796563746F5F46756E74696D652E7372656380
S11300000C9434000C943E000C943E000C943E007E
S11300100C943E000C943E000C943E000C943E0064
S11300200C943E000C943E000C943E000C943E0054
S11300300C943E000C943E000C943E000C943E0044
S11300400C943E000C943E000C943E000C943E0034
S11300500C943E000C943E000C943E000C943E0024
S11300600C943E000C943E0011241FBECFEFD8E048
S1130070DEBFCDBF0E9473000C9448010C940000B5
S1130080ECE7F0E0108280818064808380818F7748
S11300908083808180628083EAE7F0E0108280813F
S11300A080688083808183608083EEE7F0E08081D4
S11300B0806280838081806180830895ECE7F0E032
S11300C09081907F90839081892B8083EAE7F0E090
S11300D080818064808380917A0086FDFCCF80914A
S11300E0790090E0089560E074E080E00E94CC0024
S11300F060E074E080E00E94E30060E074E080E08F
S11301000E94FB0060E074E080E00E941E010E94F7
S11301104000789486E00E945E0087E00E945E00C2
S113012085E00E945E0084E00E945E0086E00E94FA
S11301305E00EFE3FCE93197F1F700C000000E9494
S1130140F70087E00E945E00EFE3FCE93197F1F7E6
S113015000C000000E94F90085E00E945E00EFE309
S1130160FCE93197F1F700C000000E943C0184E0F3
S11301700E945E00EFE3FCE93197F1F700C0000054
S11301800E944201FFE728E381E0F15020408040D3
S1130190E1F700C00000CACF9AB190649AB914BCC8
S11301A0882321F084B5806C84BD03C084B5806845
S11301B084BD84B5836084BD6115744019F485B52C
S11301C0856085BD08959AB190629AB915BC88235B
S11301D021F084B5806384BD03C084B5806284BD8E
S11301E084B5836084BD85B5856085BD089587BD6C
S11301F0089588BD089594B1926094B910928000D6
S1130200882331F0E0E8F0E08081806C808305C0D1
S1130210E0E8F0E0808180688083E0E8F0E08081BD
S113022081608083E1E8F0E08081886080836115EB
S1130230744019F4808185608083089594B194603A
S113024094B9882331F0E0E8F0E080818063808312
S113025005C0E0E8F0E0808180628083E0E8F0E0BF
S1130260808181608083E1E8F0E080818860808320
S1130270808185608083089590E0909389008093C5
S11302808800089590E090938B0080938A000895ED
S1070290F894FFCF0C
S9030000FC
